:0300000002071FD5
:0C071F00787FE4F6D8FD7581480203BB2A
:10064B0000C000F900A400B000990092008200F8ED
:10065B00008000900088008300C600A10086008EF9
:1006EA00758902E4F58CF58AD2AFD2A9D28CD28868
:0306FA00D2A82261
:03000B00020006EA
:0300060005473279
:03000300020513E0
:0D051300C0E0C0D075D000C000C006C00719
:10052000300031AF47C3EF943574809480500DC3D1
:10053000EF9420748094804003752100742225215B
:10054000F8A6477547000521E5216421700BD2020A
:09055000F5218005754700D20079
:0B055900D007D006D000D0D0D0E03298
:1005B1007E01E4FDEDC3940474809480503AE4FC20
:1005C100ECC3940874809480502374222EF8E6D3EF
:1005D1009405748094804003430780ECC3940774AE
:1005E1008094805004EFC313FF0E0C80D374432D0D
:0A05F100F8A607E4FF0D80BCD2015C
:0105FB0022DD
:1003BB00E4F508F509F50DF50CF50BF50AF511F556
:1003CB0010F50FF50EF515F514F513F512C2031212
:1003DB0006EAE4FD7F481205648F08AC08E41203BB
:1003EB002FE4FBFA79FA7843120106E4FBFA797FE2
:1003FB00784312020F8F118E108D0F8C0EAF0DAE36
:10040B000CAD0BAC0AAB11AA10A90FA80E1200155C
:10041B008F0D8E0C8D0B8C0A0509D3E5099407748F
:10042B008094804035E4F509FBFAF9784112020F0C
:10043B008F158E148D138C12E4F50DF50CF50BF551
:10044B000AFFFE7DC87C42AB15AA14A913A8121291
:10045B0002AC5004C2038002D20320020302050D3A
:10046B0020030302050D1205B1C202200103020392
:10047B00DDC2A4E54524C0606F24FC605324FE60FC
:10048B001F14603424027075D293D292D291C29011
:10049B00C2967F327E0012066BD2967580F9805D14
:1004AB00D293D292C291C290C2967F647E00120602
:1004BB006BD2967580A48045D293C292C291C290A2
:1004CB00C2967F967E0012066BD2967580B0802DF9
:1004DB00C293C292C291C290C2967FC87E0012068E
:1004EB006BD2967580998015D293D292D291D2907D
:1004FB00C2967F327E0012066BD296D2A4C2010244
:08050B0003DD43900F0203DD44
:10066B00D3EF9400EE940040147D787C00ED1D7068
:0D067B00011CED4C70F7EF1F70E61E80E3D0
:01068800224F
:0B072B00EF1FAC0670011E4C70F622A0
:10068900D3EF9400EE940040147D6E7C00ED1D7054
:0D069900011CED4C70F7EF1F70E61E80E3B2
:0106A6002231
:1006FD00D294D29500000000C29500000000C29473
:01070D0022C9
:1005FC007E80EE601B5F7004C2958002D295000075
:10060C000000D29400000000C294EEC313FE80E2FE
:07061C001206C09204A204C3
:0106230022B4
:1006C000D29500000000D294A2959205000000008F
:0406D000C294A20529
:0106D4002203
:10062400E4FFD2957E80EE601D00000000D294307D
:10063400950442078004EEF4520700000000C294BF
:06064400EEC313FE80E08E
:01064A00228D
:10070E00A204929500000000D29400000000C29452
:01071E0022B8
:1006D500C294C29500000000D29500000000D2949B
:0506E5000000000022EE
:1006A7008F198D1A1206FDAF191205FC7F4012052E
:0906B700FCAF1A1205FC0206D585
:040564008F168D174A
:10056800E4F5181206FDE51625E0FF1205FC500219
:1005780080197F401205FCAF171205FC1206FDE535
:100588001625E04401FF1205FC50061206D57F002F
:1005980022120624C20412070E1206248F18D2044F
:0805A80012070E1206D5AF1870
:0105B0002228
:10000E00020398E86480F8E933E83360110460F085
:10001E00ED33EC337009E8FCE9FDEAFEEBFF220458
:10002E0060DED3EB9FEA9EE99DE8C2E78CF0C2F753
:10003E0095F0400CE8CCF8E9CDF9EACEFAEBCFFB1F
:10004E0012036385D0F05804700320D5B3E8047012
:10005E00075002B2D50203A292D5EC0460F7E4CCAD
:10006E00C0E0C398F8603B94186008400DD0E0FBE8
:10007E0002037AE4FBFAC9FC8028E830E406E4C9FE
:10008E00FBE4CAFCE830E305E4C9CACBFCE854073C
:10009E006010F8C3E913F9EA13FAEB13FBEC13FC47
:1000AE00D8F130F52FC3E49CFCEF9BFFEE9AFEEDEA
:1000BE0099FDD0E0FBEF4E4D4C701222DB03020394
:1000CE009FEC2CFCEF33FFEE33FEED33FDED30E70E
:1000DE00EB02037AEF2BFFEE3AFEED39FDD0E0FB9B
:1000EE0050130BBB00030203A2ED13FDEE13FEEF44
:0800FE0013FFEC13FC02037A6E
:10010600EC4D6011E8497017ED33EC3304600DE4F3
:10011600FCFFFEFD22E933E8330470F8020398126F
:10012600036358046009E4CC248150062850090270
:1001360003A228400302039FC0E0EB4A7044B98043
:1001460006D0E0FB02038EEF4E701CBD8008EBFF6D
:10015600EAFEE9FD80EBE98DF0A4FEE5F00201EF91
:10016600E9CDF9EAFEEBFFEF89F0A4FCE5F0CE89D4
:10017600F0A42EFFE435F0CD89F0A42DFEE435F091
:100186008067EF4E7005BD80D780C3EF8BF0A4ACBF
:10019600F0EE8BF0A42CFCE435F0F8EF8AF0A42CFA
:1001A600E5F038FCE433CB8DF0A42CFCE5F03BF80D
:1001B600EE8AF0A42CFCE5F038F8E433CF89F0A4FD
:1001C6002CFCE5F038CF3400CE89F0A42FFFE5F003
:1001D6003EFEE433C98DF0A42EFEE5F039CD8AF05B
:1001E600A42FFFE5F03EFEE43DFD33D0E0FB5007D3
:1001F6000BBB000F0203A2EC2CFCEF33FFEE33FE29
:06020600ED33FD02037A56
:10020C000203A2EC5D046005E85904700302039834
:10021C00120363580460F6EC4860F2EC7004FDFEC7
:10022C00FF22C860DB2481C85009C39860025006C5
:10023C0002039F9850CAF582E9294B4A7005AB829C
:10024C0002038E75F0007C1A7880C3EF9BEE9AED5A
:10025C0099400DC3EF9BFFEE9AFEED99FDE842F03D
:10026C00DC23ACF0D0E0FFD0E0FED0E0FDAB822090
:10027C00E7101BEB60BAEC2CFCEF33FFEE33FEED1A
:10028C0033FD02037AE803F830E705C0F075F0009F
:10029C00EF2FFFEE33FEED33FD40B830E7C280AAFE
:1002AC0074F8CC6480CCC86480C8F58204604FC3F9
:1002BC00EB9FF5F0EA9E42F0E99D42F0E89C45F098
:1002CC00603C501DE5825FFFE582D313CB5BCBF422
:1002DC002B5582FB50280ABA002409B9002008804B
:1002EC001DE5825BFBE582D313CF5FCFF4C3132FE5
:1002FC005582FF50090EBE00050DBD00010CC3EB6D
:10030C009FF5F0EA9E42F0E99D42F0E89C45F060D2
:09031C0007CC4820E701B3EC22F4
:1003250075F020800E75F010800575F0087D007E53
:10033500007F003392D530D5031203ADEC33401066
:10034500EF33FFEE33FEED33FDEC33FCD5F0ED225C
:0E035500E5F0247EA2D513CC92E7CDCEFF2298
:10036300E9D2E7C933E833F892D5EDD2E7CD33ECE0
:0703730033FC5002B2D52259
:10037A00EC30E7100FBF000C0EBE00080DBD0004E4
:10038A000BEB6014A2D5EB13FCED92E7FD2274FF90
:10039A00FCFDFEFF22E480F8A2D574FF13FC7D80E9
:0303AA00E480EFFD
:0E03AD00C3E49FFFE49EFEE49DFDE49CFC2261
:00000001FF
