:03000000020626CF
:0C062600787FE4F6D8FD75814802037966
:1005520000C000F900A400B000990092008200F8E7
:10056200008000900088008300C600A10086008EF3
:1005F100758902E4F58CF58AD2AFD2A9D28CD28862
:03060100D2A8225A
:03000B00020006EA
:0300060005473279
:0300030002041ADA
:0D041A00C0E0C0D075D000C000C006C00713
:10042700300031AF47C3EF943574809480500DC3CB
:10043700EF94207480948040037521007422252155
:10044700F8A6477547000521E5216421700BD20204
:09045700F5218005754700D20073
:0B046000D007D006D000D0D0D0E03292
:1004B8007E01E4FDEDC3940474809480503AE4FC1A
:1004C800ECC3940874809480502374222EF8E6D3E9
:1004D8009405748094804003430780ECC3940774A8
:1004E8008094805004EFC313FF0E0C80D374432D07
:0A04F800F8A607E4FF0D80BCD20156
:0105020022D6
:10037900E4F508F509F50AF50EF50DF50CF50BF59B
:1003890012F511F510F50FC2031205F1E4FD7F48CE
:1003990012046B8F08AC08E41202B6E4FBFA79FA8E
:1003A9007843120106E4FBFA797F784312020F8F32
:1003B900128E118D108C0FAF0EAE0DAD0CAC0BABB8
:1003C90012AA11A910A80F1200158F0E8E0D8D0CEF
:1003D9008C0B0509D3E50994077480948040ADB26C
:1003E90090E4F509FBFAF9784112020F1202EA8F3B
:1003F9000AE4F50EF50DF50CF50BC3EF9464748062
:1004090094805006C203D2978082D203C297020316
:01041900954D
:10057200D3EF9400EE940040147D787C00ED1D7062
:0D058200011CED4C70F7EF1F70E61E80E3CA
:01058F002249
:0B063200EF1FAC0670011E4C70F6229A
:10059000D3EF9400EE940040147D6E7C00ED1D704E
:0D05A000011CED4C70F7EF1F70E61E80E3AC
:0105AD00222B
:10060400D294D29500000000C29500000000C2946C
:0106140022C3
:100503007E80EE601B5F7004C2958002D29500006E
:100513000000D29400000000C294EEC313FE80E2F8
:070523001205C79204A204B7
:01052A0022AE
:1005C700D29500000000D294A29592050000000089
:0405D700C294A20523
:0105DB0022FD
:10052B00E4FFD2957E80EE601D00000000D2943077
:10053B00950442078004EEF4520700000000C294B9
:06054B00EEC313FE80E088
:010551002287
:10061500A204929500000000D29400000000C2944C
:0106250022B2
:1005DC00C294C29500000000D29500000000D29495
:0505EC000000000022E8
:1005AE008F168D17120604AF161205037F40120523
:0905BE0003AF171205030205DC6E
:04046B008F138D144A
:10046F00E4F515120604E51325E0FF12050350020B
:10047F0080197F40120503AF14120503120604E51D
:10048F001325E04401FF12050350061205DC7F001F
:10049F002212052BC20412061512052B8F15D2043A
:0804AF001206151205DCAF1561
:0104B7002222
:10000E00020356E86480F8E933E83360110460F0C7
:10001E00ED33EC337009E8FCE9FDEAFEEBFF220458
:10002E0060DED3EB9FEA9EE99DE8C2E78CF0C2F753
:10003E0095F0400CE8CCF8E9CDF9EACEFAEBCFFB1F
:10004E0012032185D0F05804700320D5B3E8047054
:10005E00075002B2D502036092D5EC0460F7E4CCEF
:10006E00C0E0C398F8603B94186008400DD0E0FBE8
:10007E00020338E4FBFAC9FC8028E830E406E4C940
:10008E00FBE4CAFCE830E305E4C9CACBFCE854073C
:10009E006010F8C3E913F9EA13FAEB13FBEC13FC47
:1000AE00D8F130F52FC3E49CFCEF9BFFEE9AFEEDEA
:1000BE0099FDD0E0FBEF4E4D4C701222DB03020394
:1000CE005DEC2CFCEF33FFEE33FEED33FDED30E750
:1000DE00EB020338EF2BFFEE3AFEED39FDD0E0FBDD
:1000EE0050130BBB0003020360ED13FDEE13FEEF86
:0800FE0013FFEC13FC020338B0
:10010600EC4D6011E8497017ED33EC3304600DE4F3
:10011600FCFFFEFD22E933E8330470F802035612B1
:10012600032158046009E4CC2481500628500902B2
:10013600036028400302035DC0E0EB4A7044B980C7
:1001460006D0E0FB02034CEF4E701CBD8008EBFFAF
:10015600EAFEE9FD80EBE98DF0A4FEE5F00201EF91
:10016600E9CDF9EAFEEBFFEF89F0A4FCE5F0CE89D4
:10017600F0A42EFFE435F0CD89F0A42DFEE435F091
:100186008067EF4E7005BD80D780C3EF8BF0A4ACBF
:10019600F0EE8BF0A42CFCE435F0F8EF8AF0A42CFA
:1001A600E5F038FCE433CB8DF0A42CFCE5F03BF80D
:1001B600EE8AF0A42CFCE5F038F8E433CF89F0A4FD
:1001C6002CFCE5F038CF3400CE89F0A42FFFE5F003
:1001D6003EFEE433C98DF0A42EFEE5F039CD8AF05B
:1001E600A42FFFE5F03EFEE43DFD33D0E0FB5007D3
:1001F6000BBB000F020360EC2CFCEF33FFEE33FE6B
:06020600ED33FD02033898
:10020C00020360EC5D046005E859047003020356B8
:10021C00120321580460F6EC4860F2EC7004FDFE09
:10022C00FF22C860DB2481C85009C39860025006C5
:10023C0002035D9850CAF582E9294B4A7005AB82DE
:10024C0002034C75F0007C1A7880C3EF9BEE9AED9C
:10025C0099400DC3EF9BFFEE9AFEED99FDE842F03D
:10026C00DC23ACF0D0E0FFD0E0FED0E0FDAB822090
:10027C00E7101BEB60BAEC2CFCEF33FFEE33FEED1A
:10028C0033FD020338E803F830E705C0F075F000E1
:10029C00EF2FFFEE33FEED33FD40B830E7C280AAFE
:1002AC0075F020800E75F010800575F0087D007ECD
:1002BC00007F003392D530D50312036BEC33401022
:1002CC00EF33FFEE33FEED33FDEC33FCD5F0ED22D6
:0E02DC00E5F0247EA2D513CC92E7CDCEFF2212
:1002EA00EDD2E7CD33EC3392D524814006E4FFFE0C
:1002FA00FDFC22FCE4CFCECDCC24E0501174FF806B
:10030A00EDC3CC13CCCD13CDCE13CECF13CF047007
:07031A00F030D5DE02036B99
:10032100E9D2E7C933E833F892D5EDD2E7CD33EC22
:0703310033FC5002B2D5229B
:10033800EC30E7100FBF000C0EBE00080DBD000426
:100348000BEB6014A2D5EB13FCED92E7FD2274FFD2
:10035800FCFDFEFF22E480F8A2D574FF13FC7D802B
:03036800E480EF3F
:0E036B00C3E49FFFE49EFEE49DFDE49CFC22A3
:00000001FF
